S0110000486973745F42616E642E73726563A7
S113010019C033C032C031C030C02FC025C12DC08A
S11301102CC02BC02AC029C028C027C026C025C097
S113012024C024C022C021C020C01FC0B6C01DC02E
S11301301CC01BC011241FBECFEFCDBFDFE3DEBF49
S11301401FE3A0E0BFE3EAEBFAE002C005900D92E2
S1130150A430B107D9F72FE3A4E0BFE301C01D9297
S1130160AF31B207E1F709D187C4CACF1F920F920A
S11301700FB60F9211242F933F938F93EF93FF9316
S1130180E0E0F6E081E083872089318920931D3FF8
S113019030931E3F8087FF91EF918F913F912F9174
S11301A00F900FBE0F901F901895E0E0F4E0848943
S11301B0887F848B84898460848B8489877F848B03
S11301C0E0EAF0E0808180628083818182608183C3
S11301D0E0E0F6E082E0828380818160808381E0D8
S11301E0828784E08683089581E0809308060895D9
S11301F088ED27E030E084BF2093610020E030E008
S113020084BF20936000809163008823E1F3089504
S1130210E0E4F1E089E4808384E490E082879387DA
S113022081E082830895E0E0F4E08081846080834B
S11302300895882331F0E0E0F4E0848184608483CD
S11302400895E0E0F4E084818B7F84830895E0E006
S1130250F8E081EA91E08087918780E8858380ECEB
S11302608683E0E2F4E08081846080830895FC0169
S113027007C09091040895FFFCCF80930208319643
S113028080818111F6CF8091040886FFFCCFE0E0E5
S1130290F8E084818064848308951F920F920FB6DE
S11302A00F9211248F939F93EF93FF938091043FB8
S11302B0E82FF0E090910008E75FF04C90839A30CB
S11302C011F0843149F481E090E08093063F9093EB
S11302D0073F1092043F03C08F5F8093043FFF9158
S11302E0EF919F918F910F900FBE0F901F901895D3
S11302F0CF92DF92EF92FF920F931F93CF93DF93EE
S11303007C016B016CE77AE889E09FE3C1D08C0142
S113031061E87AE889E09FE3BBD0EC01011511059F
S113032031F0C801049696D0F6018083918320971A
S113033031F0CE0104968ED0F70180839183109220
S1130340063F1092073FDF91CF911F910F91FF90CD
S1130350EF90DF90CF9008951F920F920FB60F92F7
S113036011248F9381E08093073F809343018F9101
S11303700F900FBE0F901F901895CF93DF93CDB7BA
S1130380DEB7A897CDBFDEBF33DF42DF0EDF4BDF22
S11303905EDF1092083FCE01019628E2FC01119223
S11303A02A95E9F722E1E6E8FAE8DC0101900D92EA
S11303B02A95E1F75CDF789417DF8091063F882364
S11303C0E1F360E07FE382E09FE392DF80911D3FF1
S11303D090911E3F2091003F3091013F281739072B
S11303E038F52091053F211123C081E022DF81E00F
S11303F08093053F8E010F5F1F4F88E2F801119231
S11304008A95E9F780911E3F8F9380911D3F8F93CA
S113041088E99AE89F938F931F930F935BD0C80149
S113042026DF0F900F900F900F900F900F90C5CF75
S11304302091023F3091033F8217930708F0BDCF0C
S11304408091053F882309F4B8CF80E0F2DE109252
S1130450053FB3CFFC0188279927E89421912032E6
S1130460E9F3293010F02E30C8F32B3241F02D324D
S113047039F4689404C00E946202820F911D219194
S113048020532A30C0F31EF4909581959F4F089510
S1130490FB0151915523A9F0BF01DC014D91451792
S11304A04111E1F759F4CD010190002049F04D913B
S11304B040154111C9F3FB014111EFCF81E090E0F8
S11304C0019708957AE0979F902D879F802D910D35
S11304D011240895AEE0B0E0EFE6F2E0AAC20D897F
S11304E01E8986E08C8309831A838FEF9FE78D83AF
S11304F09E83AE01475E5F4F6F89788DCE01019672
S113050008D0EF81F885E00FF11F10822E96E4E009
S1130510A9C2ABE0B0E0EEE8F2E07DC26C017B0181
S11305208A01FC0116821782838181FFBFC1CE013B
S113053001963C01F6019381F70193FD859193FFA8
S113054081917F01882309F4ADC1853239F493FD8B
S1130550859193FF81917F01853221F4B60190E06A
S1130560C0D1E8CF912C212C312CFFE1F315D8F028
S11305708B3279F038F4803279F08332A1F4232D70
S113058020611DC08D3261F0803369F4232D216018
S113059016C0832D8260382EE32DE4603E2E2AC0DF
S11305A0F32DF8601DC037FC2DC020ED280F2A3034
S11305B040F08E32B9F436FC75C1232D2064322EFE
S11305C019C036FE06C08AE0989E200D1124922E92
S11305D011C0EAE02E9E200D1124222EF32DF0628C
S11305E03F2E08C08C3621F4832D8068382E02C03B
S11305F0883641F4F70193FD859193FF81917F0142
S11306008111B3CF982F9F7D9554933028F40C5FBC
S11306101F4F9FE399830DC0833631F0833771F008
S1130620833509F055C020C0F801808189830E5FAD
S11306301F4F88248394912C530112C02801F2E0A7
S11306404F0E511CF801A080B18036FE03C0692D05
S113065070E002C06FEF7FEFC50138D14C01820119
S1130660F32DFF773F2E15C0280122E0420E511CC6
S1130670F801A080B18036FE03C0692D70E002C08D
S11306806FEF7FEFC50117D14C01F32DF0683F2EBA
S1130690820133FC19C0822D90E088169906A0F4DB
S11306A0B60180E290E01DD12A94F5CFF50137FC24
S11306B0859137FE81915F01B60190E012D121103E
S11306C02A9421E0821A91088114910479F7E1C0F7
S11306D0843611F0893639F5F80137FE07C0608198
S11306E07181828193810C5F1F4F08C06081718189
S11306F0072E000C880B990B0E5F1F4FF32DFF760E
S11307003F2E97FF09C090958095709561957F4F16
S11307108F4F9F4FF0683F2E2AE030E0A3011DD198
S1130720882E861844C0853731F4232D2F7EB22EAF
S11307302AE030E025C0932D997FB92E8F36C1F081
S113074018F4883579F0AEC0803719F0883721F075
S1130750A9C0E92FE061BE2EB4FE0DC0FB2DF460EC
S1130760BF2E09C034FE0AC0292F2660B22E06C04F
S113077028E030E005C020E130E002C020E132E0B2
S1130780F801B7FE07C060817181828193810C5F9B
S11307901F4F06C06081718180E090E00E5F1F4FA3
S11307A0A301DBD0882E8618FB2DFF773F2E36FE63
S11307B00DC0232D2E7FA22E891458F434FE0BC0B5
S11307C032FC09C0832D8E7EA82E05C0B82CA32C24
S11307D003C0B82C01C0B92CA4FE0FC0FE01E80D63
S11307E0F11D8081803321F49A2D997EA92E09C0B0
S11307F0A2FE06C0B394B39404C08A2D867809F08F
S1130800B394A3FC10C0A0FE06C0B21480F4280C5C
S1130810922C9B180DC0B21458F4B60180E290E0FB
S113082060D0B394F8CFB21418F42B1802C0982CEB
S1130830212CA4FE0FC0B60180E390E052D0A2FEAA
S113084016C0A1FC03C088E790E002C088E590E0F0
S1130850B6010CC08A2D867851F0A1FE02C08BE24D
S113086001C080E2A7FC8DE2B60190E03AD0891481
S113087030F4B60180E390E034D09A94F8CF8A94AF
S1130880F301E80DF11D8081B60190E02AD08110BA
S1130890F6CF222009F44ECEB60180E290E021D0BA
S11308A02A94F7CFF6018681978102C08FEF9FEFDC
S11308B02B96E2E1C9C0FC01059061507040011023
S11308C0D8F7809590958E0F9F1F0895FC01615075
S11308D0704001900110D8F7809590958E0F9F1F5E
S11308E008950F931F93CF93DF93FB01238121FD81
S11308F003C08FEF9FEF2CC022FF16C046815781A3
S1130900248135814217530744F4A081B1819D01AC
S11309102F5F3F4F208331838C93268137812F5F54
S11309203F4F2683378314C08B01EC01FB01008405
S1130930F185E02D0995892BE1F6D80116968D9164
S11309409C911797019616968D939C931797CE01B9
S1130950DF91CF911F910F910895FA01AA272830B2
S113096051F1203181F1E8946F936E7F6E5F7F4F78
S11309708F4F9F4FAF4FB1E03ED0B4E03CD0670FF4
S1130980781F891F9A1FA11D680F791F8A1F911D47
S1130990A11D6A0F711D811D911DA11D20D009F497
S11309A068943F912AE0269F11243019305D3193D9
S11309B0DEF6CF010895462F4770405D4193B3E0C2
S11309C00FD0C9F7F6CF462F4F70405D4A3318F069
S11309D0495D31FD4052419302D0A9F7EACFB4E01A
S11309E0A6959795879577956795BA95C9F70097D2
S11309F06105710508959B01AC010A2E0694579573
S1130A00479537952795BA95C9F7620F731F841FC9
S1130A10951FA01D08952F923F924F925F926F925F
S1130A207F928F929F92AF92BF92CF92DF92EF927A
S1130A30FF920F931F93CF93DF93CDB7DEB7CA1BFB
S1130A40DB0BCDBFDEBF09942A88398848885F84D0
S1130A506E847D848C849B84AA84B984C884DF805A
S1130A60EE80FD800C811B81AA81B981CE0FD11D3E
S10F0A70CDBFDEBFED010895F894FFCF68
S1130A7C4D41583A004D494E3A0048697342616EF3
S1130A8C642050726F20312E300D0A0052656C6157
S1130A9C79205475726E6564204F4E2D54656D70BB
S1110AAC657261747572653A2025640D0A0046
S1070ABA28001400F8
S9030100FB
