S0110000486973745F42616E642E73726563A7
S113010019C028C027C026C025C024C01EC122C0D3
S113011021C020C01FC01EC01DC01CC01BC01AC0EF
S113012019C019C017C016C015C014C0C6C012C06B
S113013011C010C011241FBECFEFCDBFDFE3DEBF5F
S11301402FE3A0E0BFE301C01D92AD31B207E1F798
S11301500DD17AC6D5CF1F920F920FB60F921124EC
S11301602F933F938F93EF93FF93E0E0F6E081E0CA
S11301708387208931892093063F3093073F808706
S1130180FF91EF918F913F912F910F900FBE0F90A0
S11301901F901895E0E0F4E08489887F848B84893B
S11301A08460848B8489877F848BE0EAF0E080819B
S11301B080628083818182608183E0E0F6E082E076
S11301C0828380818160808381E0828784E086836A
S11301D0089581E0809308060895CF93DF93EC019E
S11301E06091063F7091073F80E090E00FD224E3D6
S11301F032EA44E35EE398D22FEA34EB42EC52E471
S113020062D1CED16883798381E0DF91CF91089563
S113021088ED25E030E084BF2093610020E030E0E9
S113022084BF20936000809163008823E1F30895E4
S1130230E0E4F1E089E4808384E490E082879387BA
S113024081E082830895E0E0F4E08081846080832B
S11302500895882331F0E0E0F4E0848184608483AD
S11302600895E0E0F4E084818B7F84830895E0E0E6
S1130270F8E085E490E08087918780E8858380ECCE
S11302808683E0E2F4E08081846080830895FC0149
S113029007C09091040895FFFCCF80930208319623
S11302A080818111F6CF8091040886FFFCCFE0E0C5
S11302B0F8E084818064848308951F920F920FB6BE
S11302C00F9211248F939F93EF93FF938091033F99
S11302D0E82FF0E090910008E75FF04C90839A30AB
S11302E011F0833131F481E08093023F1092033F97
S11302F003C08F5F8093033FFF91EF919F918F9194
S11303000F900FBE0F901F9018950F931F93CF93CC
S1130310DF938C01EB016CE47EE889E09FE38FD2EC
S1130320009721F06ED2F801808391836CE47EE81B
S113033080E090E084D2009719F063D28883998397
S1130340DF91CF911F910F9108951F920F920FB6D5
S11303500F9211248F9381E08093053F8093430192
S11303608F910F900FBE0F901F901895CF93DF932E
S1130370CDB7DEB7AE97CDBFDEBF4ADF59DF0ADFA8
S113038062DF75DF1092083FCE01079628E2FC0178
S113039011922A95E9F722E1E4E5FEE8DC010190F7
S11303A00D922A95E1F773DF789413DF0DE210E0E4
S11303B00F2EF9E1EF2EF12CF02D8091053F8823CB
S11303C0E1F3CE01059609DF8091083F8330F9F40B
S11303D06E01F7E0CF0ED11C88E2F60111928A95E6
S11303E0E9F78E818F938D818F9386E69EE89F93A4
S11303F08F93DF92CF9256D2C60149DF1092083F05
S11304000F900F900F900F900F900F9003C08F5F7D
S11304108093083F8D819E8180179107D4F02091AD
S1130420043F211116C081E014DF81E08093043F72
S1130430CE01079628E2FC0111922A95E9F722E100
S1130440EAE7FEE8DC0101900D922A95E1F71FDF4F
S11304501BC0E816F906C4F08091043F8823A1F07C
S113046080E0F7DE1092043FCE01079628E2FC01FB
S113047011922A95E9F723E1ECE8FEE8DC0101900A
S11304800D922A95E1F703DF8091023F8823C1F0A2
S1130490BE016D5F7F4FCE01019637DFC980DA80E0
S11304A0AB80BC80CA14DB0434F48FE99EE8EFDE31
S11304B08501760103C089EB9EE8E9DE1092023FD4
S11304C01092053F7ACF5058BB27AA270E947B027F
S11304D00C945A030E944C0338F00E94530320F0FA
S11304E039F49F3F19F426F40C9449030EF4E09573
S11304F0E7FB0C944303E92F0E946B0358F3BA17EC
S1130500620773078407950720F079F4A6F50C9425
S11305108D030EF4E0950B2EBA2FA02D0B01B9011B
S113052090010C01CA01A0011124FF27591B99F065
S1130530593F50F4503E68F11A16F040A22F232F71
S1130540342F4427585FF3CF469537952795A795C1
S1130550F0405395C9F77EF41F16BA0B620B730B68
S1130560840BBAF09150A1F0FF0FBB1F661F771FD9
S1130570881FC2F70EC0BA0F621F731F841F48F48E
S1130580879577956795B795F7959E3F08F0B0CF17
S11305909395880F08F09927EE0F979587950895FE
S11305A00E94D7026894B1110C948E0308950E949E
S11305B0730388F09F5798F0B92F9927B751B0F07B
S11305C0E1F0660F771F881F991F1AF0BA95C9F7D3
S11305D014C0B13091F00E948D03B1E008950C94E1
S11305E08D03672F782F8827B85F39F0B93FCCF394
S11305F0869577956795B395D9F73EF49095809550
S1130600709561957F4F8F4F9F4F0895E89409C06F
S113061097FB3EF490958095709561957F4F8F4F31
S11306209F4F9923A9F0F92F96E9BB279395F69547
S1130630879577956795B795F111F8CFFAF4BB0FC5
S113064011F460FF1BC06F5F7F4F8F4F9F4F16C029
S1130650882311F096E911C0772321F09EE8872FB3
S1130660762F05C0662371F096E8862F70E060E06F
S11306702AF09A95660F771F881FDAF7880F9695E8
S1130680879597F9089597F99F6780E870E060E08F
S113069008959FEF80EC089500240A941616170617
S11306A018060906089500240A941216130614065F
S11306B005060895092E0394000C11F4882352F0C2
S11306C0BB0F40F4BF2B11F460FF04C06F5F7F4F7A
S11306D08F4F9F4F089557FD9058440F551F59F061
S11306E05F3F71F04795880F97FB991F61F09F3F1B
S11306F079F087950895121613061406551FF2CF44
S11307004695F1DF08C0161617061806991FF1CF93
S113071086957105610508940895E894BB276627BA
S11307207727CB0197F908950E94A7030C945A03E5
S11307300E944C0338F00E94530320F0952311F0DB
S11307400C9443030C94490311240C948E030E94CB
S11307506B0370F3959FC1F3950F50E0551F629F93
S1130760F001729FBB27F00DB11D639FAA27F00D06
S1130770B11DAA1F649F6627B00DA11D661F829F2D
S11307802227B00DA11D621F739FB00DA11D621F12
S1130790839FA00D611D221F749F3327A00D611D2F
S11307A0231F849F600D211D822F762F6A2F112411
S11307B09F5750409AF0F1F088234AF0EE0FFF1F44
S11307C0BB1F661F771F881F91505040A9F79E3F9B
S11307D0510580F00C9443030C948E035F3FE4F3C3
S11307E0983ED4F3869577956795B795F795E795F1
S11307F09F5FC1F7FE2B880F911D9695879597F9FA
S11308000895FC0188279927E89421912032E9F37F
S1130810293010F02E30C8F32B3241F02D3239F448
S1130820689404C00E944A04820F911D21912053B0
S11308302A30C0F31EF4909581959F4F089540E0AF
S11308405FE301D00895FA01A191B081009719F4F2
S11308501097E1F0CD01DC01CD010D90002011F4E1
S1130860C00113C0FB012191222319F02015D9F7EF
S1130870F3CFFB012191201519F41E92119606C0A5
S11308802223C1F70D900020A1F7D001FA01A19312
S1130890B08308957AE0979F902D879F802D910DC6
S11308A011240895AEE0B0E0E7E5F4E0AAC20D89B2
S11308B01E8986E08C8309831A838FEF9FE78D83DB
S11308C09E83AE01475E5F4F6F89788DCE0101969E
S11308D008D0EF81F885E00FF11F10822E96E4E036
S11308E0A9C2ABE0B0E0E6E7F4E07DC26C017B01B5
S11308F08A01FC0116821782838181FFBFC1CE0168
S113090001963C01F6019381F70193FD859193FFD4
S113091081917F01882309F4ADC1853239F493FDB7
S1130920859193FF81917F01853221F4B60190E096
S1130930C0D1E8CF912C212C312CFFE1F315D8F054
S11309408B3279F038F4803279F08332A1F4232D9C
S113095020611DC08D3261F0803369F4232D216044
S113096016C0832D8260382EE32DE4603E2E2AC00B
S1130970F32DF8601DC037FC2DC020ED280F2A3060
S113098040F08E32B9F436FC75C1232D2064322E2A
S113099019C036FE06C08AE0989E200D1124922EBE
S11309A011C0EAE02E9E200D1124222EF32DF062B8
S11309B03F2E08C08C3621F4832D8068382E02C067
S11309C0883641F4F70193FD859193FF81917F016E
S11309D08111B3CF982F9F7D9554933028F40C5FE9
S11309E01F4F9FE399830DC0833631F0833771F035
S11309F0833509F055C020C0F801808189830E5FDA
S1130A001F4F88248394912C530112C02801F2E0D3
S1130A104F0E511CF801A080B18036FE03C0692D31
S1130A2070E002C06FEF7FEFC50138D14C01820145
S1130A30F32DFF773F2E15C0280122E0420E511CF2
S1130A40F801A080B18036FE03C0692D70E002C0B9
S1130A506FEF7FEFC50117D14C01F32DF0683F2EE6
S1130A60820133FC19C0822D90E088169906A0F407
S1130A70B60180E290E01DD12A94F5CFF50137FC50
S1130A80859137FE81915F01B60190E012D121106A
S1130A902A9421E0821A91088114910479F7E1C023
S1130AA0843611F0893639F5F80137FE07C06081C4
S1130AB07181828193810C5F1F4F08C060817181B5
S1130AC0072E000C880B990B0E5F1F4FF32DFF763A
S1130AD03F2E97FF09C090958095709561957F4F43
S1130AE08F4F9F4FF0683F2E2AE030E0A3011DD1C5
S1130AF0882E861844C0853731F4232D2F7EB22EDC
S1130B002AE030E025C0932D997FB92E8F36C1F0AD
S1130B1018F4883579F0AEC0803719F0883721F0A1
S1130B20A9C0E92FE061BE2EB4FE0DC0FB2DF46018
S1130B30BF2E09C034FE0AC0292F2660B22E06C07B
S1130B4028E030E005C020E130E002C020E132E0DE
S1130B50F801B7FE07C060817181828193810C5FC7
S1130B601F4F06C06081718180E090E00E5F1F4FCF
S1130B70A301DBD0882E8618FB2DFF773F2E36FE8F
S1130B800DC0232D2E7FA22E891458F434FE0BC0E1
S1130B9032FC09C0832D8E7EA82E05C0B82CA32C50
S1130BA003C0B82C01C0B92CA4FE0FC0FE01E80D8F
S1130BB0F11D8081803321F49A2D997EA92E09C0DC
S1130BC0A2FE06C0B394B39404C08A2D867809F0BB
S1130BD0B394A3FC10C0A0FE06C0B21480F4280C89
S1130BE0922C9B180DC0B21458F4B60180E290E028
S1130BF060D0B394F8CFB21418F42B1802C0982C18
S1130C00212CA4FE0FC0B60180E390E052D0A2FED6
S1130C1016C0A1FC03C088E790E002C088E590E01C
S1130C20B6010CC08A2D867851F0A1FE02C08BE279
S1130C3001C080E2A7FC8DE2B60190E03AD08914AD
S1130C4030F4B60180E390E034D09A94F8CF8A94DB
S1130C50F301E80DF11D8081B60190E02AD08110E6
S1130C60F6CF222009F44ECEB60180E290E021D0E6
S1130C702A94F7CFF6018681978102C08FEF9FEF08
S1130C802B96E2E1C9C0FC0105906150704001104F
S1130C90D8F7809590958E0F9F1F0895FC016150A1
S1130CA0704001900110D8F7809590958E0F9F1F8A
S1130CB008950F931F93CF93DF93FB01238121FDAD
S1130CC003C08FEF9FEF2CC022FF16C046815781CF
S1130CD0248135814217530744F4A081B1819D01D9
S1130CE02F5F3F4F208331838C93268137812F5F81
S1130CF03F4F2683378314C08B01EC01FB01008432
S1130D00F185E02D0995892BE1F6D80116968D9190
S1130D109C911797019616968D939C931797CE01E5
S1130D20DF91CF911F910F910895FA01AA272830DE
S1130D3051F1203181F1E8946F936E7F6E5F7F4FA4
S1130D408F4F9F4FAF4FB1E03ED0B4E03CD0670F20
S1130D50781F891F9A1FA11D680F791F8A1F911D73
S1130D60A11D6A0F711D811D911DA11D20D009F4C3
S1130D7068943F912AE0269F11243019305D319305
S1130D80DEF6CF010895462F4770405D4193B3E0EE
S1130D900FD0C9F7F6CF462F4F70405D4A3318F095
S1130DA0495D31FD4052419302D0A9F7EACFB4E046
S1130DB0A6959795879577956795BA95C9F70097FE
S1130DC06105710508959B01AC010A2E069457959F
S1130DD0479537952795BA95C9F7620F731F841FF6
S1130DE0951FA01D08952F923F924F925F926F928C
S1130DF07F928F929F92AF92BF92CF92DF92EF92A7
S1130E00FF920F931F93CF93DF93CDB7DEB7CA1B27
S1130E10DB0BCDBFDEBF09942A88398848885F84FC
S1130E206E847D848C849B84AA84B984C884DF8086
S1130E30EE80FD800C811B81AA81B981CE0FD11D6A
S10F0E40CDBFDEBFED010895F894FFCF94
S1130E4C41494D4E583A2C0048697342616E6420F6
S1130E5C50726F20312E300D0A0054656D7065721E
S1130E6C61747572653A202564BA430D0A005265A3
S1130E7C6C6179205475726E6564204F4E0D0A00B6
S1130E8C52656C6179205475726E6564204F4646C8
S1130E9C0D0A00446174612072656365697665644A
S1130EAC20636F72726563746C790D0A00457272FB
S1130EBC6F7220726563656976696E67206461740C
S1070ECC610D0A00A6
S9030100FB
