:1001000019C028C027C026C025C024C011C122C0E4
:1001100021C020C01FC01EC01DC01CC01BC01AC0F3
:1001200019C019C017C016C015C014C0ABC012C08A
:1001300011C010C011241FBECFEFCDBFDFE3DEBF63
:100140002FE3A0E0BFE301C01D92AD31B207E1F79C
:1001500000D1B0C4D5CF1F920F920FB60F921124C9
:100160002F933F938F93EF93FF93E0E0F6E081E0CE
:1001700083872089318920931B3F30931C3F8087E0
:10018000FF91EF918F913F912F910F900FBE0F90A4
:100190001F901895E0E0F4E08489887F848B84893F
:1001A0008460848B8489877F848BE0EAF0E080819F
:1001B00080628083818182608183E0E0F6E082E07A
:1001C000828380818160808381E0828784E086836E
:1001D000089581E080930806089588ED27E030E0D7
:1001E00084BF2093610020E030E084BF2093600052
:1001F000809163008823E1F30895E0E4F1E089E46D
:10020000808384E490E08287938781E082830895ED
:10021000E0E0F4E08081846080830895882331F0F9
:10022000E0E0F4E08481846084830895E0E0F4E019
:1002300084818B7F84830895E0E0F8E081EA91E097
:100240008087918780E8858380EC8683E0E2F4E014
:100250008081846080830895FC0107C09091040828
:1002600095FFFCCF80930208319680818111F6CFF3
:100270008091040886FFFCCFE0E0F8E08481806490
:10028000848308951F920F920FB60F9211248F93BB
:100290009F93EF93FF938091033FE82FF0E09091BD
:1002A0000008E95FF04C90839A3011F0833131F40B
:1002B00081E08093023F1092033F03C08F5F8093E1
:1002C000033FFF91EF919F918F910F900FBE0F9081
:1002D0001F9018950F931F93CF93DF93EC018B0121
:1002E00067ED7AE887E09FE3E0D0009731F0BFD078
:1002F00088839983C1E0D0E002C0C0E0D0E067ED20
:100300007AE880E090E0D1D0009729F0B0D0F801F1
:10031000808391832196229729F088EB9AE89CDFCD
:1003200080E001C081E0DF91CF911F910F9108958E
:100330001F920F920FB60F9211248F9381E080933A
:10034000053F809343018F910F900FBE0F901F9038
:100350001895CF93DF93CDB7DEB7AC97CDBFDEBF97
:100360003CDF4BDF17DF54DF67DF84E190E08983F8
:100370009A8388E290E08B839C831092063FCE01A3
:10038000059628E2FC0111922A95E9F722E1EFEDAA
:10039000FAE8DC0101900D922A95E1F75DDF78948F
:1003A00018DF8091023F8823E1F3BE016D5F7F4F2C
:1003B000CE0101968FDF80911B3F90911C3F2B81D6
:1003C0003C812817390738F52091043F211123C0BB
:1003D00081E024DF81E08093043F8E010B5F1F4F9B
:1003E00088E2F80111928A95E9F780911C3F8F937A
:1003F00080911B3F8F9381EF9AE89F938F931F9378
:100400000F9386D0C80128DF0F900F900F900F90A8
:100410000F900F90C6CF29813A818217930708F673
:100420008091043F882309F4BCCF80E0F7DE10926E
:10043000043F8E010B5F1F4F88E2F80111928A95ED
:10044000E9F780911C3F8F9380911B3F8F9383E14D
:100450009BE89F938F931F930F935AD0C801FCDEA4
:100460000F900F900F900F900F900F909ACFFC016C
:1004700088279927E89421912032E9F3293010F058
:100480002E30C8F32B3241F02D3239F4689404C079
:100490000E948002820F911D219120532A30C0F3C7
:1004A0001EF4909581959F4F089540E05FE301D041
:1004B0000895FA01A191B081009719F41097E1F025
:1004C000CD01DC01CD010D90002011F4C00113C05D
:1004D000FB012191222319F02015D9F7F3CFFB015D
:1004E0002191201519F41E92119606C02223C1F7FE
:1004F0000D900020A1F7D001FA01A193B0830895D7
:100500007AE0979F902D879F802D910D112408955B
:10051000AEE0B0E0EDE8F2E0AAC20D891E8986E007
:100520008C8309831A838FEF9FE78D839E83AE01AF
:10053000475E5F4F6F89788DCE01019608D0EF81BD
:10054000F885E00FF11F10822E96E4E0A9C2ABE01F
:10055000B0E0ECEAF2E07DC26C017B018A01FC01B3
:1005600016821782838181FFBFC1CE0101963C01B3
:10057000F6019381F70193FD859193FF81917F01AE
:10058000882309F4ADC1853239F493FD859193FF39
:1005900081917F01853221F4B60190E0C0D1E8CF8E
:1005A000912C212C312CFFE1F315D8F08B3279F00E
:1005B00038F4803279F08332A1F4232D20611DC0FC
:1005C0008D3261F0803369F4232D216016C0832DB4
:1005D0008260382EE32DE4603E2E2AC0F32DF860B1
:1005E0001DC037FC2DC020ED280F2A3040F08E3280
:1005F000B9F436FC75C1232D2064322E19C036FEA5
:1006000006C08AE0989E200D1124922E11C0EAE0C7
:100610002E9E200D1124222EF32DF0623F2E08C0B5
:100620008C3621F4832D8068382E02C0883641F440
:10063000F70193FD859193FF81917F018111B3CFE4
:10064000982F9F7D9554933028F40C5F1F4F9FE3A4
:1006500099830DC0833631F0833771F0833509F00B
:1006600055C020C0F801808189830E5F1F4F882408
:100670008394912C530112C02801F2E04F0E511CBB
:10068000F801A080B18036FE03C0692D70E002C081
:100690006FEF7FEFC50138D14C018201F32DFF7759
:1006A0003F2E15C0280122E0420E511CF801A08007
:1006B000B18036FE03C0692D70E002C06FEF7FEF9E
:1006C000C50117D14C01F32DF0683F2E820133FC98
:1006D00019C0822D90E088169906A0F4B60180E238
:1006E00090E01DD12A94F5CFF50137FC859137FEB6
:1006F00081915F01B60190E012D121102A9421E08E
:10070000821A91088114910479F7E1C0843611F0BE
:10071000893639F5F80137FE07C060817181828121
:1007200093810C5F1F4F08C060817181072E000C00
:10073000880B990B0E5F1F4FF32DFF763F2E97FF0F
:1007400009C090958095709561957F4F8F4F9F4F11
:10075000F0683F2E2AE030E0A3011DD1882E8618D4
:1007600044C0853731F4232D2F7EB22E2AE030E0AD
:1007700025C0932D997FB92E8F36C1F018F4883596
:1007800079F0AEC0803719F0883721F0A9C0E92F81
:10079000E061BE2EB4FE0DC0FB2DF460BF2E09C07B
:1007A00034FE0AC0292F2660B22E06C028E030E0B1
:1007B00005C020E130E002C020E132E0F801B7FEE0
:1007C00007C060817181828193810C5F1F4F06C0D9
:1007D0006081718180E090E00E5F1F4FA301DBD04C
:1007E000882E8618FB2DFF773F2E36FE0DC0232D59
:1007F0002E7FA22E891458F434FE0BC032FC09C09F
:10080000832D8E7EA82E05C0B82CA32C03C0B82C37
:1008100001C0B92CA4FE0FC0FE01E80DF11D8081BE
:10082000803321F49A2D997EA92E09C0A2FE06C01C
:10083000B394B39404C08A2D867809F0B394A3FCD2
:1008400010C0A0FE06C0B21480F4280C922C9B1895
:100850000DC0B21458F4B60180E290E060D0B394B9
:10086000F8CFB21418F42B1802C0982C212CA4FE37
:100870000FC0B60180E390E052D0A2FE16C0A1FCEA
:1008800003C088E790E002C088E590E0B6010CC0A4
:100890008A2D867851F0A1FE02C08BE201C080E271
:1008A000A7FC8DE2B60190E03AD0891430F4B6018D
:1008B00080E390E034D09A94F8CF8A94F301E80D65
:1008C000F11D8081B60190E02AD08110F6CF222060
:1008D00009F44ECEB60180E290E021D02A94F7CF01
:1008E000F6018681978102C08FEF9FEF2B96E2E1A0
:1008F000C9C0FC010590615070400110D8F7809587
:1009000090958E0F9F1F0895FC01615070400190DB
:100910000110D8F7809590958E0F9F1F08950F9323
:100920001F93CF93DF93FB01238121FD03C08FEF42
:100930009FEF2CC022FF16C046815781248135814C
:100940004217530744F4A081B1819D012F5F3F4FAF
:10095000208331838C93268137812F5F3F4F2683FD
:10096000378314C08B01EC01FB010084F185E02D7D
:100970000995892BE1F6D80116968D919C911797D0
:10098000019616968D939C931797CE01DF91CF9188
:100990001F910F910895FA01AA27283051F12031B3
:1009A00081F1E8946F936E7F6E5F7F4F8F4F9F4F03
:1009B000AF4FB1E03ED0B4E03CD0670F781F891F45
:1009C0009A1FA11D680F791F8A1F911DA11D6A0F13
:1009D000711D811D911DA11D20D009F468943F91C6
:1009E0002AE0269F11243019305D3193DEF6CF01C5
:1009F0000895462F4770405D4193B3E00FD0C9F78B
:100A0000F6CF462F4F70405D4A3318F0495D31FDF7
:100A10004052419302D0A9F7EACFB4E0A69597954A
:100A2000879577956795BA95C9F700976105710520
:100A300008959B01AC010A2E06945795479537956A
:100A40002795BA95C9F7620F731F841F951FA01DC4
:100A500008952F923F924F925F926F927F928F9262
:100A60009F92AF92BF92CF92DF92EF92FF920F933D
:100A70001F93CF93DF93CDB7DEB7CA1BDB0BCDBF80
:100A8000DEBF09942A88398848885F846E847D8413
:100A90008C849B84AA84B984C884DF80EE80FD8026
:100AA0000C811B81AA81B981CE0FD11DCDBFDEBFC4
:080AB000ED010895F894FFCF59
:100AB8004572726F7220656E206C61206F6274657A
:100AC8006E6369F36E206465206461746F7300411E
:100AD800494D4E583A2C0048697342616E64205063
:100AE800726F20312E300D0A0052656C61792054E6
:100AF80075726E6564204F4E2D54656D7065726118
:100B0800747572653A2025640D0A0052656C617926
:100B1800205475726E6564204F46462D54656D707D
:0E0B2800657261747572653A2025640D0A00CD
:0400000300000100F8
:00000001FF
