S0110000486973745F42616E642E73726563A7
S113010019C033C032C031C030C02FC0E3C02DC0CD
S11301102CC02BC02AC029C028C027C026C025C097
S113012024C024C022C021C020C01FC0A8C01DC03C
S11301301CC01BC011241FBECFEFCDBFDFE3DEBF49
S11301401FE3A0E0BFE3EEE4F3E002C005900D92EC
S1130150A030B107D9F72FE3A0E0BFE301C01D929F
S1130160AA31B207E1F7C7D0E7C0CACF1F920F92F6
S11301700FB60F9211242F933F938F93EF93FF9316
S1130180E0E0F6E081E08387208931892093183FFD
S11301903093193F8087FF91EF918F913F912F9179
S11301A00F900FBE0F901F901895E0E0F4E0848943
S11301B0887F848B84898460848B8489877F848B03
S11301C0E0EAF0E0808180628083818182608183C3
S11301D0E0E0F6E082E0828380818160808381E0D8
S11301E0828784E08683089581E0809308060895D9
S11301F088ED27E030E084BF2093610020E030E008
S113020084BF20936000809163008823E1F3089504
S1130210E0E4F1E089E4808384E490E082879387DA
S113022081E082830895E0E0F4E08081846080834B
S11302300895E0E0F8E081EA91E08087918780E822
S1130240858380EC8683E0E2F4E0808184608083AF
S11302500895FC0107C09091040895FFFCCF80939A
S11302600208319680818111F6CF8091040886FFBF
S1130270FCCFE0E0F8E084818064848308951F92D9
S11302800F920FB60F9211248F939F93EF93FF93C6
S11302908091003FE82FF0E090910008EC5FF04C73
S11302A090839A3011F0843149F481E090E0809396
S11302B0013F9093023F1092003F03C08F5F8093F1
S11302C0003FFF91EF919F918F910F900FBE0F9080
S11302D01F9018951F920F920FB60F9211248F93AF
S11302E081E08093023F809343018F910F900FBE72
S11302F00F901F901895CF93DF93CDB7DEB7A897D3
S1130300CDBFDEBF75DF84DF50DF8DDF92DF10925B
S1130310033FCE01019628E2FC0111922A95E9F7E8
S113032022E1ECE3F3E8DC0101900D922A95E1F778
S10F033090DF789459DFFFCFF894FFCFE2
S113033C48697342616E642050726F20312E300D07
S105034C0A00A1
S9030100FB
